:100000000C942A000C942B070C9454070C947D0735
:100010000C94FD090C94D4090C94AB090C94590967
:100020000C9482090C9430090C9407090C94DE0896
:100030000C948F080C944F0A0C94780A0C94260A9E
:100040000C9479050C9447000C9447000C946608B6
:100050000C94020711241FBECFE5D8E0DEBFCDBF50
:1000600011E0A0E6B0E0E0ECF5E102C005900D92F1
:10007000AC31B107D9F721E0ACE1B1E001C01D928C
:10008000A134B207E1F70E94E1040C94DE0A0C945B
:100090000000AF92BF92DF92EF92FF920F931F93F7
:1000A000CF93DF93982F9F70D92EC82FC295CF7012
:1000B00060E083E00E9480068FE8E82E80E0F82E62
:1000C000570103E010E0D0E0BE01002E02C075959C
:1000D00067950A94E2F76170F50182915F010E94D1
:1000E00080060150110980F761E082E00E948006DD
:1000F0008FE99FE00197F1F700C0000060E082E027
:100100000E948006EFE9FFE03197F1F700C00000A0
:10011000C3E0D0E00D2D10E0B8010C2E02C07595A3
:1001200067950A94E2F76170F70182917F010E945E
:100130008006219788F761E082E00E9480068FE9BF
:100140009FE00197F1F700C0000060E082E00E94AC
:100150008006EFE9FFE03197F1F700C00000DF9182
:10016000CF911F910F91FF90EF90DF90BF90AF90D4
:100170000895AF92BF92DF92EF92FF920F931F9379
:10018000CF93DF93982F9F70D92EC82FC295CF7031
:1001900061E083E00E9480068FE8E82E80E0F82E80
:1001A000570103E010E0D0E0BE01002E02C07595BB
:1001B00067950A94E2F76170F50182915F010E94F0
:1001C00080060150110980F761E082E00E948006FC
:1001D0008FE99FE00197F1F700C0000060E082E046
:1001E0000E948006EFE9FFE03197F1F700C00000C0
:1001F000C3E0D0E00D2D10E0B8010C2E02C07595C3
:1002000067950A94E2F76170F70182917F010E947D
:100210008006219788F761E082E00E9480068FE9DE
:100220009FE00197F1F700C0000060E082E00E94CB
:100230008006EFE9FFE03197F1F700C00000DF91A1
:10024000CF911F910F91FF90EF90DF90BF90AF90F3
:1002500008952FEF80E792E0215080409040E1F731
:1002600000C0000082E00E94490088E20E9449002C
:100270008FE99FE00197F1F700C000008CE00E9439
:1002800049008FE99FE00197F1F700C0000081E08D
:100290000E9449008FE19EE40197F1F700C0000041
:1002A00086E00C9449000C94B9000F931F93CF93F0
:1002B0008C01C0E0F801EC0FF11D8081882321F052
:1002C0000E94B900CF5FF6CFCF911F910F91089593
:1002D000813011F48FEF0BC0823011F48FE307C02F
:1002E000833011F483E103C0843029F483E5860F61
:1002F00080680C9449000895CF93DF93EA010E942F
:100300006801CE01DF91CF910C9455010F931F939B
:10031000CF93DF93D82F162F042F0E946801C0E0DF
:10032000C01729F080E20E94B900CF5FF9CF612F9A
:100330008D2FDF91CF911F910F910C946801CF9376
:10034000DF93D82F64E60E94A10A892FCAE06C2FA0
:100350000E94A10A805D0E94B9008D2F6C2F0E941F
:10036000A10A80E3890FDF91CF910C94B9000E941C
:10037000D60784E690E00E94BC070E94090860E06E
:1003800088E60E94490880E00E94250880E00E94DB
:1003900025080C942208AF92BF92CF92DF92EF9281
:1003A000FF920F931F93CF93DF93FC01892B09F4E6
:1003B00013C180812AE0622F0E94A10AA82F092F71
:1003C00081810E94A10AE82EC92E438182810E9468
:1003D000A10A592F20E030E0D0E0B0E0AA24A39495
:1003E000B12C10E02430B8F4B501022E01C0660F24
:1003F0000A94EAF76095D623B801022E02C07595DB
:1004000067950A94E2F761707727022E01C0660FA4
:100410000A94EAF71DC0273011F4DF771AC0B9013A
:1004200064507109FD0102C0F595E7956A95E2F700
:10043000BF0161707727022E01C0660F0A94EAF7A8
:10044000F501022E01C0EE0F0A94EAF7E095DE23D3
:10045000D62B2F5F3F4F2830310521F620E030E0CA
:1004600010E0F12CE1E0F0E0D12C2430B8F4BF0131
:10047000022E01C0660F0A94EAF760951623B601B2
:10048000022E02C0759567950A94E2F7617077278E
:10049000022E01C0660F0A94EAF719C0B901645030
:1004A0007109D70102C0B595A7956A95E2F7BD011C
:1004B00061707727022E01C0660F0A94EAF7DF0108
:1004C000022E01C0AA0F0A94EAF7A0951A23162B50
:1004D0002F5F3F4F2730310541F6442311F0C0E430
:1004E00001C0C0E0082F01700295007F20E030E0DD
:1004F00090E0A1E0B0E0E52FF0E0522F2430D0F4FE
:10050000BD01022E01C0660F0A94EAF76095C6236A
:10051000BF01022E02C0759567950A94E2F76170DB
:100520007727022E01C0660F0A94EAF7C62B4423F0
:10053000E1F04FC041113CC0B901645071097C0128
:1005400002C0F594E7946A95E2F7B70161707727E6
:10055000052E01C0660F0A94EAF77D0101C0EE0C7A
:100560005A95EAF7E094CE21C62B2F5F3F4F2630F5
:10057000310519F60E94090860E088E60E944908E2
:1005800080E00E9425088D2F0E942508812F0E945F
:1005900025088C2F0E942508DF91CF911F910F9184
:1005A000FF90EF90DF90CF90BF90AF900C94220817
:1005B000413059F04230C9F65430B8F2543019F491
:1005C000CF7EC02BD2CFC062D0CF5430C9F3CF7D05
:1005D000CCCF413079F7C9CFDF91CF911F910F91E7
:1005E000FF90EF90DF90CF90BF90AF9008950F9362
:1005F0001F93CF93DF9300D01F92CDB7DEB7009744
:1006000009F475C08C010E94090860E088E60E9428
:10061000490880E00E9425080E94150861E088E6EC
:100620000E944908CE0103960E943608CE01029628
:100630000E943608CE0101960E9436080E941508D5
:1006400060E088E60E9449080E9422088B81982F6A
:100650009077969596959695292F220F220F920FB7
:100660008F70890FF80180838A81982F90779695F3
:1006700096959695292F220F220F920F8F70890F32
:1006800081838981982F9F7086FF25C0282F207134
:1006900085FF10C082E0838330E044E035952795E4
:1006A0004A95E1F7220F822F880F880F280F920FAB
:1006B00092831DC081E0F801838330E084E03595AA
:1006C00027958A95E1F7220F822F880F880F280F30
:1006D000290F22830CC08073869586958695282FD6
:1006E000220F220F820F980FF801928313820F902E
:1006F0000F900F90DF91CF911F910F910895CF929E
:10070000DF92EF92FF920F931F93CF93DF93FC0141
:10071000892B09F4D8C081812AE0622F0E94A10AA6
:10072000C82FE92E82810E94A10AAC0183810E9418
:10073000A10A692F008120E030E010E0D0E0A1E0C4
:10074000B0E0F12C2430B8F4FD01022E01C0EE0F10
:100750000A94EAF7E0951E23F701022E02C0F595F0
:10076000E7950A94E2F7E170FF27022E01C0EE0F31
:100770000A94EAF718C0F90134976E0102C0D594C3
:10078000C794EA95E2F7F601E170FF27022E01C057
:10079000EE0F0A94EAF76D01022E01C0CC0C0A9408
:1007A000EAF7C0941C211E2B2F5F3F4F26303105E6
:1007B00049F641704295407F20E030E0C0E0EE24F1
:1007C000E394F12CA52FB0E02430C1F0F701022E04
:1007D00001C0EE0F0A94EAF7E095CE23FD01022E48
:1007E00002C0F595E7950A94E2F7E170FF27022E23
:1007F00001C0EE0F0A94EAF7CE2B02C0CF7EC42BC5
:100800002F5F3F4F25303105F9F620E030E0D0E092
:1008100090E0E1E0F0E070E02430B8F4AF01022EA7
:1008200001C0440F0A94EAF74095D423AB01022E8D
:1008300002C0559547950A94E2F741705527022E5C
:1008400001C0440F0A94EAF719C0A90144505109A4
:10085000DC0102C0B595A7954A95E2F7AD0141705C
:100860005527022E01C0440F0A94EAF7DF01022E39
:1008700001C0AA0F0A94EAF7A095DA23D42B2F5FC0
:100880003F4F2830310541F60E94090860E088E6B4
:100890000E94490883E00E942508802F0E942508B5
:1008A000812F0E9425088C2F0E9425088D2F0E94E1
:1008B0002508DF91CF911F910F91FF90EF90DF906E
:1008C000CF900C942208DF91CF911F910F91FF9050
:1008D000EF90DF90CF9008950F931F93CF93DF9306
:1008E00000D000D0CDB7DEB7009709F452C08C011C
:1008F0000E94090860E088E60E94490883E00E949F
:1009000025080E94150861E088E60E944908CE018A
:1009100001960E943608CE0104960E943608CE0148
:1009200003960E943608CE0102960E9436080E9465
:10093000150860E088E60E94490883E00E942508C7
:100940000E9422088981F80180838C81982F9073FE
:10095000969596959695292F220F220F920F8F70BC
:10096000890F81838B8184FB992790F9990F292F17
:10097000220F220F920F8F70890F82838A81982F06
:1009800092959F708F70FAE09F9F800D1124F8015F
:1009900083830F900F900F900F90DF91CF911F9155
:1009A0000F91089580911C018F5F80931C018E33FD
:1009B00039F487EF82BF81E08093600010921C01C0
:1009C00008950E94A2050E9429010E94B70185E6B0
:1009D00090E00E94CB0181E690E00E947F0365E0F9
:1009E00080E00E94B80882ED94E00E94D90887EF69
:1009F00082BF89B7816089BF78944FE850E061E099
:100A000081E00E947C0145E950E061E082E00E94C3
:100A10007C014BE950E061E083E00E947C01809121
:100A200060008130E1F71092600085E690E00E945E
:100A3000F70242E06FE084E00E94860181E690E0E8
:100A40000E946C0466E081E00E946801809167006A
:100A50000E949F018AE30E945301809166000E94D8
:100A60009F018AE30E945301809165000E949F01CB
:100A70006FE081E00E94680180916800813019F484
:100A800081EA90E007C0823019F484EA90E002C065
:100A900087EA90E00E94550166E082E00E946801CA
:100AA000809162000E949F018FE20E945301E091B9
:100AB0006300F0E0EE0FFF1FEE5FFE4F808191813B
:100AC0000E9455018FE20E945301809164000E94B0
:100AD0009F0166E083E00E946801E0916100F0E020
:100AE000EE0FFF1FEC50FF4F808191810E94550156
:100AF00096CF1F920F920FB60F9211242F933F9310
:100B00004F935F936F937F938F939F93AF93BF9315
:100B1000EF93FF93E0911D01F0911E01309709F0D2
:100B20000995FF91EF91BF91AF919F918F917F9127
:100B30006F915F914F913F912F910F900FBE0F904A
:100B40001F901895E9E6F0E040E081E090E05191D7
:100B5000342F369536953695242F2770513009F469
:100B600043C020F0523009F482C0C5C0323001F1D8
:100B7000333061F1313071F05AB3BC0102C0660FFD
:100B8000771F2A95E2F79B01352F322B3ABB3BB3F7
:100B900020953DC057B3BC0102C0660F771F2A9550
:100BA000E2F79B01352F322B37BB38B320953EC07F
:100BB00054B3BC0102C0660F771F2A95E2F79B0170
:100BC000352F322B34BB35B320953FC051B3BC0118
:100BD00002C0660F771F2A95E2F79B01352F322B53
:100BE00031BB32B3209541C0323011F1333081F145
:100BF000313079F05AB3BC0102C0660F771F2A95D5
:100C0000E2F79B012095352F32233ABB3BB32323D8
:100C100042C057B3BC0102C0660F771F2A95E2F7A6
:100C20009B012095352F322337BB38B3232343C094
:100C300054B3BC0102C0660F771F2A95E2F79B01EF
:100C40002095352F322334BB35B3232325BB53C026
:100C500051B3BC0102C0660F771F2A95E2F79B01D2
:100C60002095352F322331BB32B3232343C032309A
:100C700021F1333089F1313081F05AB3BC0102C027
:100C8000660F771F2A95E2F79B01362F30953523A3
:100C90003ABB3BB3232B2BBB2EC057B3BC0102C0C6
:100CA000660F771F2A95E2F79B01362F3095352383
:100CB00037BB38B3232B28BB1EC054B3BC0102C0C2
:100CC000660F771F2A95E2F79B01362F3095352363
:100CD00034BB35B3232BBACF51B3BC0102C0660F6E
:100CE000771F2A95E2F79B01362F3095352331BBCC
:100CF00032B3232B22BB4F5F403209F028CF089537
:100D0000982F96959695969587706623D9F16130C0
:100D100009F077C0913091F028F09230D9F09330FB
:100D200029F108954BB321E030E0B90102C0660F0C
:100D3000771F8A95E2F7CB01842B38C048B321E0B6
:100D400030E0B90102C0660F771F8A95E2F7CB0148
:100D5000842B3AC045B321E030E0B90102C0660FF0
:100D6000771F8A95E2F7CB01842B3CC042B321E088
:100D700030E0B90102C0660F771F8A95E2F7CB0118
:100D8000842B3EC09130A1F028F09230F9F09330DE
:100D900059F108954BB321E030E0B90102C0660F6C
:100DA000771F8A95E2F7CB01809584238BBB08954A
:100DB00048B321E030E0B90102C0660F771F8A9581
:100DC000E2F7CB018095842388BB089545B321E0E9
:100DD00030E0B90102C0660F771F8A95E2F7CB01B8
:100DE0008095842385BB089542B321E030E0B901AA
:100DF00002C0660F771F8A95E2F7CB0180958423A6
:100E000082BB08951F920F920FB60F9211242F9359
:100E10003F934F935F936F937F938F939F93AF9382
:100E2000BF93EF93FF93E0911F01F0912001309762
:100E300009F00995FF91EF91BF91AF919F918F912B
:100E40007F916F915F914F913F912F910F900FBEC6
:100E50000F901F9018951F920F920FB60F921124AA
:100E60002F933F934F935F936F937F938F939F93B2
:100E7000AF93BF93EF93FF93E0912501F09126018B
:100E8000309709F00995FF91EF91BF91AF919F9134
:100E90008F917F916F915F914F913F912F910F9023
:100EA0000FBE0F901F9018951F920F920FB60F92C2
:100EB00011242F933F934F935F936F937F938F935F
:100EC0009F93AF93BF93EF93FF93E0912301F09132
:100ED0002401309709F00995FF91EF91BF91AF91EF
:100EE0009F918F917F916F915F914F913F912F9142
:100EF0000F900FBE0F901F9018951F920F920FB674
:100F00000F9211242F933F934F935F936F937F938F
:100F10008F939F93AF93BF93EF93FF93E091210142
:100F2000F0912201309709F00995FF91EF91BF915F
:100F3000AF919F918F917F916F915F914F913F9171
:100F40002F910F900FBE0F901F90189521B12C7FFD
:100F500021B9089A9C0140E050E060E074E284EF1F
:100F600090E00E94AD0A205130E083E0369527954D
:100F70008A95E1F720B908959C0191B19C7F91B9C0
:100F8000089AA8EEB3E00E94CF0A9B01AC0160E092
:100F900074E284EF90E00E94AD0A205130E083E0DB
:100FA000369527958A95E1F720B9089580E895E26E
:100FB0000E94A607109886B7806486BF20E030E0C4
:100FC000E1E0F0E065E070E092B1A22F2F5F3F4FCB
:100FD000AF01022E01C0440F0A94EAF7842F8095D6
:100FE000892382B942B1CB0102C095958795AA9514
:100FF000E2F781709927022E01C0880F0A94EAF760
:10100000842B82B927303105F9F686B7846086BF14
:10101000089584EE86BF06B607FEFDCF91B1987F96
:1010200081E0983009F480E0089584EE86BF06B62A
:1010300007FEFDCF81B1887F803111F082E00895F5
:1010400080E0089584E986BF089583B986B78F7DCF
:1010500086BF84E886BF06B607FEFDCF81B1887FD4
:10106000883211F085E0089580E00895FC0196B77C
:101070009F7D96BF84EC86BF06B607FEFDCF91B17B
:10108000987F903521F483B1808380E0089586E0D5
:101090000895880F613011F4816001C08E7F83B99B
:1010A00086B78F7D86BF84E886BF06B607FEFDCF74
:1010B00081B1887F613021F4803431F084E008957B
:1010C000883111F083E0089580E008951F920F9217
:1010D0000FB60F9211242F933F934F935F936F930B
:1010E0007F938F939F93AF93BF93EF93FF93E09181
:1010F0002701F0912801309709F00995FF91EF91B0
:10110000BF91AF919F918F917F916F915F914F911F
:101110003F912F910F900FBE0F901F9018951F9227
:101120000F920FB60F9211242F933F934F935F931B
:101130006F937F938F939F93AF93BF93EF93FF939F
:10114000E0912901F0912A01309709F00995FF916A
:10115000EF91BF91AF919F918F917F916F915F912F
:101160004F913F912F910F900FBE0F901F901895A8
:10117000813059F038F0823059F0833099F483B7D8
:1011800088600CC083B7877F05C083B7877F06C0A0
:1011900083B7886083BF83B78F7B03C083BF83B768
:1011A000806483BF83B7887F83BF83B7682B63BFA7
:1011B000089590933A018093390108951F920F92F8
:1011C0000FB60F9211242F933F934F935F936F931A
:1011D0007F938F939F93AF93BF93EF93FF93E09190
:1011E0003901F0913A01309709F00995FF91EF919B
:1011F000BF91AF919F918F917F916F915F914F912F
:101200003F912F910F900FBE0F901F9018951F9236
:101210000F920FB60F9211242F933F934F935F932A
:101220006F937F938F939F93AF93BF93EF93FF93AE
:10123000E0913701F0913801309709F00995FF915D
:10124000EF91BF91AF919F918F917F916F915F913E
:101250004F913F912F910F900FBE0F901F901895B7
:101260001F920F920FB60F9211242F933F934F931B
:101270005F936F937F938F939F93AF93BF93EF93FE
:10128000FF93E0913101F0913201309709F0099517
:10129000FF91EF91BF91AF919F918F917F916F914E
:1012A0005F914F913F912F910F900FBE0F901F9024
:1012B00018951F920F920FB60F9211242F933F9300
:1012C0004F935F936F937F938F939F93AF93BF934E
:1012D000EF93FF93E0912F01F0913001309709F0E7
:1012E0000995FF91EF91BF91AF919F918F917F9160
:1012F0006F915F914F913F912F910F900FBE0F9083
:101300001F9018951F920F920FB60F9211242F93D2
:101310003F934F935F936F937F938F939F93AF937D
:10132000BF93EF93FF93E0912D01F0912E01309741
:1013300009F00995FF91EF91BF91AF919F918F9126
:101340007F916F915F914F913F912F910F900FBEC1
:101350000F901F9018951F920F920FB60F921124A5
:101360002F933F934F935F936F937F938F939F93AD
:10137000AF93BF93EF93FF93E0912B01F0912C017A
:10138000309709F00995FF91EF91BF91AF919F912F
:101390008F917F916F915F914F913F912F910F901E
:1013A0000FBE0F901F9018951F920F920FB60F92BD
:1013B00011242F933F934F935F936F937F938F935A
:1013C0009F93AF93BF93EF93FF93E0913501F0911B
:1013D0003601309709F00995FF91EF91BF91AF91D8
:1013E0009F918F917F916F915F914F913F912F913D
:1013F0000F900FBE0F901F9018951F920F920FB66F
:101400000F9211242F933F934F935F936F937F938A
:101410008F939F93AF93BF93EF93FF93E09133012B
:10142000F0913401309709F00995FF91EF91BF9148
:10143000AF919F918F917F916F915F914F913F916C
:101440002F910F900FBE0F901F9018951F920F9223
:101450000FB60F9211242F933F934F935F936F9387
:101460007F938F939F93AF93BF93EF93FF93E091FD
:101470003F01F0914001309709F00995FF91EF91FC
:10148000BF91AF919F918F917F916F915F914F919C
:101490003F912F910F900FBE0F901F9018951F92A4
:1014A0000F920FB60F9211242F933F934F935F9398
:1014B0006F937F938F939F93AF93BF93EF93FF931C
:1014C000E0913D01F0913E01309709F00995FF91BF
:1014D000EF91BF91AF919F918F917F916F915F91AC
:1014E0004F913F912F910F900FBE0F901F90189525
:1014F0001F920F920FB60F9211242F933F934F9389
:101500005F936F937F938F939F93AF93BF93EF936B
:10151000FF93E0913B01F0913C01309709F0099570
:10152000FF91EF91BF91AF919F918F917F916F91BB
:101530005F914F913F912F910F900FBE0F901F9091
:101540001895991B79E004C0991F961708F0961B0F
:10155000881F7A95C9F780950895A1E21A2EAA1BD3
:10156000BB1BFD010DC0AA1FBB1FEE1FFF1FA21753
:10157000B307E407F50720F0A21BB30BE40BF50B50
:10158000661F771F881F991F1A9469F760957095D9
:10159000809590959B01AC01BD01CF010895A29F5C
:1015A000B001B39FC001A39F700D811D1124911D37
:1015B000B29F700D811D1124911D0895F894FFCFE5
:1015C00001011F0C17303B0B02010100000000005D
:1015D000000000000000000000000000000000000B
:1015E000000000000200020202020308090A0C5473
:1015F000494D453A00444154453A00444159203A46
:1016000000414D00504D0020200053554E004D4FDD
:101610004E00545545005745440054485500465225
:101620004900534154004A414E00464542004D4155
:101630005200415052004D4159004A554E004A5502
:101640004C0041554700534550004F4354004E4F06
:10165000560044454300AA00AE00B200B600BA00EE
:10166000BE00C200C600CA00CE00D200D600DA001A
:0C167000DE00E200E600EA00EE00F200FE
:00000001FF
